:100000004AEF07F06896000C046ED8CF05F0E0CFF9
:1000100006F00001E9CF0CF0EACF07F0E1CF08F0DD
:10002000E2CF09F0D9CF0AF0DACF0BF0F3CF12F01C
:10003000F4CF13F0FACF14F0F5CF15F0F6CF16F099
:10004000F7CF17F000C00EF001C00FF002C010F0A3
:1000500003C011F0A0AA30EF00F0A1BAA1EF05F0A3
:100060000EC000F00FC001F010C002F011C003F08C
:100070000CC0E9FF07C0EAFF078E08C0E1FF09C016
:10008000E2FF0AC0D9FF0BC0DAFF12C0F3FF13C0B2
:10009000F4FF14C0FAFF15C0F5FF16C0F6FF17C035
:1000A000F7FF045006C0E0FF05C0D8FF1000F76A54
:1000B000BE0FF66E000EF7220900F5501200000286
:1000C000FFFFFFFFFFFFFFFFFFFFFFFFFFFFF76ADD
:1000D000DE0FF66E000EF7220900F5501200400008
:1000E00020000000000000000000000000000000F0
:1000F0000000000000000000000000000000F76A9F
:100100000E0FF66E010EF7220900F55012000902DB
:100110002000010100C0320904000002FFFFFF00BF
:100120000705810220000107050102200001F76A8E
:100130003E0FF66E010EF7220900F5501200010085
:10014000F76A500FF66E010EF7220900F550120003
:100150001201100100000040D8040B000100010250
:100160000001F76A720FF66E010EF7220900F550D2
:10017000120000040C00F76A860FF66E010EF722DB
:100180000900F5501200040309040803430043006A
:1001900053002603450061007300790020004D00E4
:1001A0006100720069006F00200043006F006E0064
:1001B000740072006F006C006D92699468A402D0A4
:1001C0006894FCD7ADEF05F0400E0401016F040EFA
:1001D000036F100E026F880E006F046B040E076F22
:1001E000500E066F0001000C70A002D0EDDF709081
:1001F000689AB6EF05F06A6A6892BCEF05F06991FB
:1002000068BF6981689F6851100803E2000E016EA3
:1002100017D069A10BD0036A685149DFFF0802E1DA
:10022000000E01D0010E016E0BD00AD0036A685196
:100230003EDFFF0802E1000E01D0010E016E00D08A
:10024000000C036A6751700FE96E0F0E0320EA6E0F
:10025000EF6A67C068F0D3DF015218E06751080DFC
:10026000F350696BE96E040E6925EA6EEF6A675117
:10027000080DF350696B686F040E6827000E692340
:1002800068C0E9FF040E6925EA6EEF6A000C010EF2
:10029000666F66510F0805E366C067F0D2DF662B14
:1002A000F8D7000C5C6A5C520AE1036A5C50240FC8
:1002B000E96E000E0320EA6EEF6A5C2AF4D71B6A2F
:1002C000010E1C6E1A6A000C6A6A686A9F0E6B6ED9
:1002D0003D0E696E6E6ADBDFE5DF160E706E68A696
:1002E00002D090DEFCD76D986FDF030E1F6EC2EF59
:1002F00005F0698468986D82C8EF05F0689CCEEFC0
:1003000005F061C020F0000CFF0E206E000C5F6A4B
:10031000235226E05F503F0823E31D5005E0020A08
:1003200008E0010A0BE00FD0036A2250E8DE606F9C
:100330000AD0036A22501FDF606F05D0036A225083
:10034000FFDE606F00D0222A23065F505F2A036A17
:10035000500FE96E040E0320EA6E60C0EFFFD8D79D
:10036000235204E15F50400801E01A6A5FC061F067
:10037000C8DF000C226A1D6A04011351010A000142
:1003800005E0030A08E0010A09E015D0120E236E09
:10039000030E1D6E12D0200E236E0FD0020E1D6EA6
:1003A000036A040112510001DCDE226E036A22504E
:1003B000E2DE236E02D0A8DF0CD00401175305E162
:1003C0002350165D02E216C423F0010E1A6E0001DE
:1003D0009EDFF5EF02F05E5204E1040E1F6E57DF60
:1003E000B1D0050E1F6E040E616F900E606F010E8E
:1003F0005F6E5F500F08D8A0A5D05FC067F021DF07
:10040000626B036A5F5053DEFF084DE0040E626FBB
:10041000D8905F34036A5BDE0900F5CF03F0636FA9
:1004200003C064F05F50080DF350676B666F010EF8
:100430006625016E000E6721036E01C0E9FF040E00
:100440000324EA6E63C0EFFF5F50080DF350676B43
:10045000666F020E6625016E000E6721036E01C0F5
:10046000E9FF040E0324EA6E61C0ECFFED5260C0A8
:10047000EFFFD8905F34036A2ADE0900F5CF03F05E
:10048000602703506123880E656F64B1658164B392
:1004900065835F50080DF350676BE96E040E6725A6
:1004A000EA6E65C0EFFF036A5F5001DEFF0834E0CB
:1004B00062835F50080DF350676B666F040E66270A
:1004C000000E6723020E6625016E000E6721036E83
:1004D00001C0E9FF040E0324EA6E61C0ECFFED5297
:1004E00060C0EFFFD8905F34036AF1DD0900F5CFFB
:1004F00003F06027035061235F50080DF350676BD2
:10050000666F040E6627000E672366C0E9FF040EBF
:100510006725EA6E400EEF6E6251060802E10E0E8C
:10052000626F036A5F50C3DD0108D8A46289036A61
:100530005F50700FE96E0F0E0320EA6E62C0EFFF8E
:100540005F2A57D7EFEF02F004011151000A0001B2
:100550000DE0010A14E0020A1EE0060A27E0030A81
:100560002CE00E0A2CE0010A30E03DD01CC050F413
:100570000401516B020E0001616FC3DE36D004012D
:10058000122D06D0010E1C160001616BBADE02D0DE
:100590000001BADE2AD00401122D05D01C82000110
:1005A000616BAFDE02D00001AFDE1FD0020E1A6E0B
:1005B00012C421F0616BA5DE18D0DCD616D01BC0AA
:1005C00050F4010E616F9DDE10D00401125101083C
:1005D00008E312C41BF012C45EF00001FCD6616B8C
:1005E00090DE000102D090DE00D0F2EF03F01BC0DD
:1005F0005EF004011151000A000105E00A0A0BE057
:10060000010A26E037D00401506B516B020E000145
:10061000616F77DE31D05E5219E0010E5E5C036AD5
:1006200086DD016E0401145DD8A002D000010ED059
:10063000036A1451240FE96E000E0320EA6EEFCF17
:1006400050F4010E0001616F5CDE01D05DDE14D05C
:100650005E520EE0036A04011451240FE96E000E8D
:100660000320EA6E12C4EFFF0001616B4ADE01D085
:100670004BDE02D049DE00D0F2EF03F05F905EBEA9
:100680005F805E9E5FA011D05E50080DF350616BDD
:10069000606F040E6027000E612360C0E9FF040E46
:1006A0006125EA6E880EEF6E09D05E50080DF3509A
:1006B000616BE96E040E6125EA6EEF6AC0EF03F02C
:1006C0005F905EBE5F805E9E5FA011D05E50080DA1
:1006D000F350616B606F040E6027000E612360C0F1
:1006E000E9FF040E6125EA6E840EEF6E0AD05E50BB
:1006F000080DF350616BE96E040E6125EA6E840EFD
:10070000EF6EC6EF03F05F905EBE5F805E9E5FA0FF
:1007100011D05E50080DF350626B616F040E6127BB
:10072000000E622361C0E9FF040E6225EA6EEFCF7E
:1007300060F00AD05E50080DF350626BE96E040E53
:100740006225EA6EEFCF60F060AF02D060B502D0F4
:10075000000E01D0010E016ED0EF03F014C468F05A
:100760004EDD015229E004011151010A000105E0AA
:10077000020A09E0030A0DE01DD014C45EF07ED722
:10078000616BBFDD19D014C45EF09AD7616BB9DD1F
:1007900013D00401506B516B14C45EF00001B3D749
:1007A000015204E0010E0401506F0001020E616F5E
:1007B000A8DD02D0A9DD00D0F2EF03F01A6A04012F
:1007C00010517F0B000A000105E0010A05E0030A51
:1007D00005E006D0B9D606D00AD704D0BFD702D0DC
:1007E00093DD00D010EF05F05E50080DF350646B00
:1007F000E96E040E6425EA6EEFCF60F05F500208E8
:1008000006E160AD02D05F6A02D0010E5F6E5F50FC
:10081000030813E1840E606F5E50080DF350646BA3
:10082000636F040E6327000E642363C0E9FF040EA8
:100830006425EA6E840EEF6E07D05F2C03D0C80EDD
:10084000606F02D0880E606FD8905E34036A3FDC20
:100850000900F5CF03F0616F03C062F05E50080D30
:10086000F350646B636F010E6325016E000E64210B
:10087000036E01C0E9FF040E0324EA6E61C0EFFFBE
:1008800062B1608162B360835E50080DF350646BA7
:10089000E96E040E6425EA6E60C0EFFF000C036A87
:1008A0006351700FE96E0F0E0320EA6EEF5212E0F3
:1008B0006351080DF350656B646F040E6427000EDE
:1008C000652364C0E9FF040E6525EA6EEFCF64F08E
:1008D00064AF02D0000E01D0010E016E000C5EC0AC
:1008E00063F0DDDF015262E05E50080DF350646B8F
:1008F000636F040E6327000E6423010E6325016EEF
:10090000000E6421036E01C0E9FF040E0324EA6EA9
:100910005FC0EFFF6151020817E15E50080DF35010
:10092000646B636F040E6327000E642363C0E9FFEA
:10093000040E6425EA6EEFCF62F062AD02D0616B07
:1009400002D0010E616F13D06151040810E15E50B6
:10095000080DF350646BE96E040E6425EA6EEFCF68
:1009600062F062AD03D0010E616F01D0616B612D49
:1009700003D0C80E626F02D0880E626F60B16281D0
:1009800060B362835E50080DF350646B636F040EB6
:100990006327000E642363C0E9FF040E6425EA6E3A
:1009A00062C0EFFF010E016E03D000D0000E016E99
:1009B000000C5E5200E1000C5FC06EFF5F5203E06E
:1009C000040E1F6E02D0020E1F6EECEF04F01B6AC5
:1009D0001A6A21C05FF0F0D7F8EF04F05E5208E128
:1009E0001A2C02D094DC04D01A50020801E1EFD78F
:1009F000000C1E305C6E5C325C321F0E5C161E52A8
:100A000042E1040100513C0B5D6E430E00175D5046
:100A100034081EE10451800B01E0046B0001CED6C6
:100A20006D98203C05D05E6A030E5F6EDDDE0ED051
:100A30005E6A020E5F6ED8DE2050FE0807E05E6A36
:100A4000606B20C05FF0040E616F49DF19D00401B4
:100A50005D50040816E15E6A0001ABDF5E6A020EBB
:100A60005F6EC2DE2050FE080AE0203C01D007D0B5
:100A70005E6A606B20C05FF0010E616F30DF00D0F6
:100A800004015CD000011E50040814E1430E04016F
:100A90000417FF0E206E5E6A0001A0DF203C01D02B
:100AA00008D05E6A606B20C05FF0020E616F17DFD6
:100AB00000D043D01EB41BD05C50080DF3505F6AC9
:100AC000016E040E5F24036E5C50080DF350616BE1
:100AD000E96E040E6125EA6EEF50430B03C0EAFF96
:100AE00001C0E9FFEF6E5CC05EF063DF26D05C50B2
:100AF000080DF3505F6A5E6E040E5E26000E5F22E4
:100B00005EC001F0040E5F24036E5C50080DF350CC
:100B1000616B606F040E6027000E612360C0E9FF07
:100B2000040E6125EA6EEF50430B03C0EAFF5EC07E
:100B3000E9FFEF6E5CC05EF051DF04010001D8EF09
:100B400005F0A19A1F5201E139D0685237E068A43C
:100B500004D069A402D0DCEF00F06DA201D02ED049
:100B600068AA04D069AA02D0F4EF00F068A204D009
:100B700069A202D0FBEF00F068A004D069A002D007
:100B800064EF01F068A804D069A802D079EF01F001
:100B900068AC04D069AC02D07EEF01F05B6A68A655
:100BA00008D069A606D06CCF1EF002EC00F021D769
:100BB00001D004D05B505B2A0308F1E230EF00F073
:100BC000EA6A4A0EE96EEF500EE0010E016E006A0D
:100BD000002EFED7012EFBD74A0E006E002EFED748
:100BE00000D0EF2EF2D7000C6D6A696A080E6F6EA6
:100BF00094503009946E1F6A196AF2BE198EF29EE3
:100C000052EC01F019BEF28E07EF06F0EDD72CEF93
:100C100006F0196AF2BE198EF29E52EC01F019BE6E
:100C2000F28E6D6A140E6F6E696A6D86010E1F6E0C
:100C30001DEF06F06DB601D0ECD71F2C0BD06DBAAE
:100C400009D0686A696AA08AC00EF212110E696E34
:100C5000020E1F6E000CDAD7EDDF1F500208FCE118
:100C600063EF07F01B5202E10400FCD765EF07F0C9
:100C70001B50016E68EF07F0036A4A50700FE96E6F
:100C80000F0E0320EA6EEF520DE04A50080DF350AC
:100C90004C6A4B6EE96E040E4C24EA6EEFCF4BF0BB
:100CA0004BAE02D0000E01D0010E016E6DEF07F0C9
:100CB0004F50080DF3505A6A596E020E5924016EB6
:100CC000000E5A20036E01C0E9FF040E0324EA6EF1
:100CD000ECCF03F0ED52EFCF54F003C055F04F507E
:100CE000080DF3505A6A596E010E5924016E000E18
:100CF0005A20036E01C0E9FF040E0324EA6EEF5090
:100D0000036A576E03C058F04F50080DF3505A6AEB
:100D1000E96E040E5A24EA6EEFCF56F056B05880B2
:100D200056B258825850535C08E303E15250575C66
:100D300004E258C053F057C052F051C0EAFF50C00F
:100D4000E9FF55C0E2FF54C0E1FF53C002F052C0BA
:100D500001F0015202E0022A02D0025206E0E6CF80
:100D6000EEFF012EFCD7022EFAD752C001F053C07D
:100D700002F0C6EF06F04AC04FF04CC051F04BC035
:100D800050F04EC053F04DC052F092D702C04EF01A
:100D900001C04DF0196AF2BE198EF29E4AC05EF093
:100DA000020E5F6E21DD19BEF28E4DC001F04EC005
:100DB00002F078EF07F04A6A4B6A4B50090813E3D8
:100DC000938281A203D0010E4A6E0BD0938481A43A
:100DD00003D0020E4A6E05D0938681A602D0030E80
:100DE0004A6E4B2AEAD74AC001F07DEF07F0196A34
:100DF000F2BE198EF29E4AC063F051DD19BEF28E2A
:100E0000015245E04A50080DF350536A526E040EE9
:100E10005226000E5322020E5224016E000E532061
:100E2000036E01C0E9FF040E0324EA6EECCF03F069
:100E3000ED52EFCF50F003C051F051C0EAFF50C067
:100E4000E9FF4CC0E2FF4BC0E1FF4EC002F04DC0D5
:100E500001F0015202E0022A02D0025206E0E6CF7F
:100E6000EEFF012EFCD7022EFAD7196AF2BE198EB8
:100E7000F29E4AC05EF04EC060F04DC05FF04FC0C1
:100E800061F02DDD19BEF28E015003D000D0000EAE
:100E9000016E000CF86AD09E078EEA6AE96A1F6A42
:100EA000236AC150C00B0F09C16E070EB46E300E1D
:100EB000456E310E466E320E476E330E486E640E2E
:100EC0004A6E7EDEC8D6B6DECDD6C00EF212D0D6C1
:100ED000015254E0010E4A6ECFD601524FE0010E8E
:100EE0004A6E4C6A250E4B6E4E6A200E4D6E43D7ED
:100EF000252C44D093908A805ED701C049F00A0E19
:100F00004A6E5EDE492C0CD0010E4A6E4C6A460ECB
:100F10004B6E4E6A010E4D6E020E4F6E68DF29D089
:100F2000495002080CE1010E4A6E4C6A470E4B6EA6
:100F30004E6A010E4D6E020E4F6E59DF1AD04950A7
:100F400003080CE1010E4A6E4C6A480E4B6E4E6A65
:100F5000010E4D6E020E4F6E4ADF0BD0010E4A6E2F
:100F60004C6A450E4B6E4E6A010E4D6E020E4F6E70
:100F70003EDF93908A900A0E4A6E22DEA8D70300C5
:020000040030CA
:0E00000020C23E1E008781000FC00FE00F409F
:00000001FF
;PIC18F2550
;CRC=3A3F  CREATED="25-nov-12 21:24"
